:100000000C9487000C94A6000C94A6000C94A600F7
:100010000C94A6000C94A6000C94A6000C94A600C8
:100020000C94A6000C94A6000C94A6000C94A600B8
:100030000C944C0A0C94A6000C94A6000C94A600F8
:100040000C94E4080C94A6000C94A6000C94A60052
:100050000C94A6000C94A6000C94A6000C94A60088
:100060000C94A6000C94A6000C94A6000C94A60078
:100070000C94A6000C94A6000C94A6000C94A60068
:100080000C94A6000C94A6000C94A60007634236BC
:10009000B79BD8A71A39685618AEBAAB558C1D3C19
:1000A000B7CC5763BD6DEDFD753EF6177231BF00DD
:1000B0000000803F08000000BE922449123EABAA17
:1000C000AA2ABECDCCCC4C3E00000080BEABAAAA72
:1000D000AA3E00000000BF000000803F00000000BA
:1000E00000084178D3BB4387D1133D190E3CC3BDF3
:1000F0004282AD2B3E68EC8276BED98FE1A93E4CA0
:1001000080EFFFBE01C4FF7F3F000000000011240C
:100110001FBECFEFD0E1DEBFCDBF11E0A0E0B1E068
:10012000E4E0F9E200E00BBF02C007900D92A831B5
:10013000B107D9F711E0A8E1B1E001C01D92A237E3
:10014000B107E1F70E94D50D0C9480140C940000C7
:10015000CF93DF93CDB7DEB76C970FB6F894DEBFC1
:100160000FBECDBF898F6A8F5C8F4B8F8FE290E07F
:1001700021E0398D332309F420E0FC0120830000C5
:100180008EE290E0FC0180818823D4F78FE290E03A
:100190002A8DFC01208300008EE290E0FC0180812A
:1001A0008823D4F70E94610480E090E0AAE7B4E4D9
:1001B00089839A83AB83BC832BEA3AEA4AEA50E408
:1001C00069817A818B819C810E944A12DC01CB017A
:1001D0008D839E83AF83B88720E030E040E85FE303
:1001E0006D817E818F8198850E94FC1088231CF48C
:1001F00081E0898791C020E030E04FE753E46D81D2
:100200007E818F8198850E94461218160CF07BC063
:1002100020E030E04AE754E469817A818B819C8157
:100220000E940011DC01CB018A879B87AC87BD87C8
:1002300020E030E04AE755E46A857B858C859D8522
:100240000E944A12DC01CB018E879F87A88BB98B55
:1002500020E030E040E85FE36E857F8588899989FA
:100260000E94FC1088232CF481E090E09B8B8A8B09
:100270003FC020E03FEF4FE757E46E857F858889D8
:1002800099890E94461218164CF520E030E040E2B1
:1002900051E46A857B858C859D850E944A12DC012C
:1002A000CB01BC01CD010E946811DC01CB019B8B0D
:1002B0008A8B0FC080E991E09D8B8C8B8C899D8906
:1002C0000197F1F79D8B8C8B8A899B8901979B8B7A
:1002D0008A8B8A899B89009769F724C06E857F8500
:1002E000888999890E946811DC01CB019B8B8A8BDC
:1002F0008A899B899F8B8E8B8E899F890197F1F7C5
:100300009F8B8E8B0FC06D817E818F8198850E941F
:100310006811DC01CB0189878985888F888D8A9552
:10032000F1F7888F6C960FB6F894DEBF0FBECDBF85
:10033000DF91CF910895CF93DF93CDB7DEB7E297EA
:100340000FB6F894DEBF0FBECDBF9AAB89AB8FE27C
:1003500090E021E0FC01208300008EE290E0FC01AF
:1003600080818823D4F78FE290E020912B01222F07
:1003700030E049A95AA9240F351FF9012081FC0159
:10038000208300008EE290E0FC0180818823D4F776
:100390000E94610480912B018F5F80932B018091DB
:1003A0002B01803109F0C0C080E090E0A0E2B2E40F
:1003B00089839A83AB83BC832BEA3AEA4AEA50E406
:1003C00069817A818B819C810E944A12DC01CB0178
:1003D0008D839E83AF83B88720E030E040E85FE301
:1003E0006D817E818F8198850E94FC1088231CF48A
:1003F00081E0898791C020E030E04FE753E46D81D0
:100400007E818F8198850E94461218160CF07BC061
:1004100020E030E04AE754E469817A818B819C8155
:100420000E940011DC01CB018A879B87AC87BD87C6
:1004300020E030E04AE755E46A857B858C859D8520
:100440000E944A12DC01CB018E879F87A88BB98B53
:1004500020E030E040E85FE36E857F8588899989F8
:100460000E94FC1088232CF481E090E09B8B8A8B07
:100470003FC020E03FEF4FE757E46E857F858889D6
:1004800099890E94461218164CF520E030E040E2AF
:1004900051E46A857B858C859D850E944A12DC012A
:1004A000CB01BC01CD010E946811DC01CB019B8B0B
:1004B0008A8B0FC080E991E09D8B8C8B8C899D8904
:1004C0000197F1F79D8B8C8B8A899B8901979B8B78
:1004D0008A8B8A899B89009769F724C06E857F85FE
:1004E000888999890E946811DC01CB019B8B8A8BDA
:1004F0008A899B899F8B8E8B8E899F890197F1F7C3
:100500009F8B8E8B0FC06D817E818F8198850E941D
:100510006811DC01CB0189878985888F888D8A9550
:10052000F1F7888F0E94940480912B01803209F0AA
:10053000C2C080E090E0A0E2B2E4898F9A8FAB8FD6
:10054000BC8F2BEA3AEA4AEA50E4698D7A8D8B8DAA
:100550009C8D0E944A12DC01CB018D8F9E8FAF8F44
:10056000B8A320E030E040E85FE36D8D7E8D8F8D95
:1005700098A10E94FC1088231CF481E089A391C0FB
:1005800020E030E04FE753E46D8D7E8D8F8D98A194
:100590000E94461218160CF07BC020E030E04AE7BB
:1005A00054E4698D7A8D8B8D9C8D0E940011DC0145
:1005B000CB018AA39BA3ACA3BDA320E030E04AE714
:1005C00055E46AA17BA18CA19DA10E944A12DC0185
:1005D000CB018EA39FA3A8A7B9A720E030E040E8F5
:1005E0005FE36EA17FA188A599A50E94FC108823D6
:1005F0002CF481E090E09BA78AA73FC020E03FEF6A
:100600004FE757E46EA17FA188A599A50E944612E5
:1006100018164CF520E030E040E251E46AA17BA1DD
:100620008CA19DA10E944A12DC01CB01BC01CD012D
:100630000E946811DC01CB019BA78AA70FC080E94B
:1006400091E09DA78CA78CA59DA50197F1F79DA78B
:100650008CA78AA59BA501979BA78AA78AA59BA57E
:10066000009769F724C06EA17FA188A599A50E9473
:100670006811DC01CB019BA78AA78AA59BA59FA730
:100680008EA78EA59FA50197F1F79FA78EA70FC0F4
:100690006D8D7E8D8F8D98A10E946811DC01CB013C
:1006A00089A389A188AB88A98A95F1F788AB0E94B4
:1006B000870410922B01E2960FB6F894DEBF0FBEAE
:1006C000CDBFDF91CF910895CF93DF9300D000D0BD
:1006D000CDB7DEB79B838A836C838C81880F880FAC
:1006E000880F805C48EE53E0682F80E00E94A800ED
:1006F000198212C08981882F90E02A813B81820F64
:10070000931FFC01808144E650E0682F81E00E9445
:10071000A80089818F5F89838981883058F30F9081
:100720000F900F900F90DF91CF910895CF93DF93AB
:1007300000D0CDB7DEB789836A838981882F90E0A6
:100740000197982F9295990F990F907C8A81890F24
:10075000805848EE53E0682F80E00E94A8000F9078
:100760000F90DF91CF910895CF93DF931F92CDB774
:10077000DEB789838981882339F444E650E060E359
:1007800081E00E94A8004AC08981843670F0998176
:1007900089E2989F812D112482958F70805D44E6B7
:1007A00050E0682F81E00E94A80089818A30E0F043
:1007B000998189E2989F812D112482958F7024E67A
:1007C000829F802D1124292F281B822F9DEC899F29
:1007D000812D1124869586958695805D44E650E0AE
:1007E000682F81E00E94A80089818823B9F099814F
:1007F0008DEC989F812D1124869586958695880F7E
:10080000282F220F220F820F292F281B822F805D75
:1008100044E650E0682F81E00E94A8000F90DF912D
:10082000CF910895CF93DF931F92CDB7DEB7898321
:10083000898188235CF444E650E06DE281E00E9407
:10084000A800898181950E94B40303C089810E9418
:10085000B4030F90DF91CF910895CF93DF93CDB77D
:10086000DEB748EE53E06EE080E00E94A800DF9122
:10087000CF910895CF93DF93CDB7DEB748EE53E025
:100880006CE080E00E94A800DF91CF910895CF93A3
:10089000DF93CDB7DEB748EE53E06EE180E00E9413
:1008A000A800DF91CF910895CF93DF93CDB7DEB746
:1008B00048EE53E068E180E00E94A800DF91CF910C
:1008C0000895CF93DF93CDB7DEB782E690E022E6BE
:1008D00030E0F90120812860FC01208382E690E06D
:1008E00022E630E0F9012081277FFC012083DF919F
:1008F000CF910895CF93DF93CDB7DEB740ED57E0AA
:1009000061E080E00E94A800DF91CF910895CF932D
:10091000DF93CDB7DEB74CED55E062E080E00E949A
:10092000A800DF91CF910895CF93DF93CDB7DEB7C5
:100930004CED55E060EC80E00E94A800DF91CF9183
:100940000895CF93DF931F92CDB7DEB7198209C008
:1009500044E650E060E281E00E94A80089818F5F58
:10096000898389818031A0F30F90DF91CF91089521
:10097000CF93DF931F92CDB7DEB78983898144E699
:1009800050E0682F81E00E94A8000F90DF91CF9186
:1009900008950F931F93CF93DF9300D01F92CDB78D
:1009A000DEB79B838A83198212C08981882F90E0E9
:1009B0002A813B81820F931FFC01808144E650E035
:1009C000682F81E00E94A80089818F5F89838981D7
:1009D000082F10E08A819B810E947714019780176D
:1009E000910718F70F900F900F90DF91CF911F9103
:1009F0000F910895CF93DF93CDB7DEB72E970FB643
:100A0000F894DEBF0FBECDBF80E090E0A0E8B1E477
:100A100089839A83AB83BC8320E030E04AE755E4C6
:100A200069817A818B819C810E944A12DC01CB0111
:100A30008D839E83AF83B88720E030E040E85FE39A
:100A40006D817E818F8198850E94FC1088232CF413
:100A500081E090E09A8789873FC020E03FEF4FE731
:100A600057E46D817E818F8198850E944612181609
:100A70004CF520E030E040E251E469817A818B81DD
:100A80009C810E944A12DC01CB01BC01CD010E9475
:100A90006811DC01CB019A8789870FC080E991E05A
:100AA0009C878B878B859C850197F1F79C878B872B
:100AB00089859A8501979A87898789859A8500977C
:100AC00069F714C06D817E818F8198850E946811BD
:100AD000DC01CB019A87898789859A859E878D87D6
:100AE0008D859E850197F1F79E878D8781E690E041
:100AF00028E0FC01208348E55BE160E380E00E94A0
:100B0000A80048E55BE160E380E00E94A80048E5BA
:100B10005BE160E380E00E94A80048E853E168E3FD
:100B200080E00E94A80048E853E168E080E00E946D
:100B3000A80048E853E161E080E00E94A80048E88E
:100B400053E166E080E00E94A80045E050E06CE0E0
:100B500080E00E94A8002E960FB6F894DEBF0FBE6C
:100B6000CDBFDF91CF910895AF92BF92CF92DF9228
:100B7000EF92FF920F931F93CF93DF93CDB7DEB722
:100B8000A3970FB6F894DEBF0FBECDBF6C8F7D8FDD
:100B90008E8F9F8F48A329A30AA3EBA219828C8D65
:100BA0009D8DAE8DBF8D8C8B9D8BAE8BBF8B8AA1A7
:100BB0008823E1F08C899D89AE89BF898827B7FD9C
:100BC00083959927AA27BB278AA38C899D89AE89FB
:100BD000BF89BB233CF4B095A095909581959F4F1C
:100BE000AF4FBF4F8C8B9D8BAE8BBF8B89A1882362
:100BF00009F44BC039C08C899D89AE89BF892AE030
:100C000030E040E050E0BC01CD010E94C910A22EAE
:100C1000B32EC42ED52EE62EF72E082F192F2A2DEF
:100C20003B2D4C2D5D2D6E2D7F2D802F912F2C8BEC
:100C30003D8B4E8B5F8B688F798F8A8F9B8F8981DD
:100C400091E0980F9983282F30E0888D998DAA8D97
:100C5000BB8D805D482FCE010396820F931FFC0150
:100C6000408389A1815089A389A1882321F68981A4
:100C700091E0980F9983882F90E09E012D5F3F4F60
:100C8000820F931F2EE2FC0120838C899D89AE89FF
:100C9000BF892AE030E040E050E0BC01CD010E9475
:100CA000C910A22EB32EC42ED52EE62EF72E082F55
:100CB000192F2A2D3B2D4C2D5D2D6E2D7F2D802F34
:100CC000912F2C8B3D8B4E8B5F8B688F798F8A8F0A
:100CD0009B8F898191E0980F9983282F30E0888D30
:100CE000998DAA8DBB8D805D482FCE010396820F12
:100CF000931FFC0140838C899D89AE89BF89009731
:100D0000A105B10511F688A18823D1F08BA1882314
:100D100011F080E301C080E28A830EC0898191E0F6
:100D2000980F9983882F90E09E012D5F3F4F820F8F
:100D3000931F2A81FC012083998188A1981770F361
:100D40008AA1882371F0898191E0980F9983882F77
:100D500090E09E012D5F3F4F820F931F2DE2FC011B
:100D600020838981815089838981882F90E09E0129
:100D70002D5F3F4F820F931FFC01808148EE53E0AF
:100D8000682F81E00E94A8008981882351F7A396EB
:100D90000FB6F894DEBF0FBECDBFDF91CF911F918C
:100DA0000F91FF90EF90DF90CF90BF90AF9008959C
:100DB000CF93DF93CDB7DEB76D970FB6F894DEBF54
:100DC0000FBECDBF9A8F898F6B8F4C8F2D8F19825D
:100DD000898D9A8D9E8B8D8B8D899E89892F881FF9
:100DE0008827881F8A838A81882339F08D899E8984
:100DF0009195819591099E8B8D8B8C8D882391F196
:100E000020C08D899E896AE070E00E949310DC0109
:100E1000CB018D8B9E8BAF8BB88F898191E0980F22
:100E20009983882F90E02F89388D205D422F9E0175
:100E30002C5F3F4F820F931FFC0140838C8D8150AC
:100E40008C8F8C8D8823E9F6898191E0980F9983A6
:100E5000882F90E09E012C5F3F4F820F931F2EE260
:100E6000FC0120838D899E896AE070E00E949310C6
:100E7000DC01CB018D8B9E8BAF8BB88F898191E08C
:100E8000980F9983882F90E02F89388D205D422F0D
:100E90009E012C5F3F4F820F931FFC0140838D8981
:100EA0009E890097F9F68D8D882391F48A81882395
:100EB00079F0898191E0980F9983882F90E09E01C5
:100EC0002C5F3F4F820F931F2DE2FC0120831A827B
:100ED0008B8D882331F18D8D882311F080E301C043
:100EE00080E28B830EC0898191E0980F9983882FCF
:100EF00090E09E012C5F3F4F820F931F2B81FC01DE
:100F000020838981282F30E08B8D482F50E08A8103
:100F1000882F90E0BA01681B790BCB01281739079D
:100F200014F38A81882371F0898191E0980F998365
:100F3000882F90E09E012C5F3F4F820F931F2DE280
:100F4000FC0120838981815089838981882F90E0E9
:100F50009E012C5F3F4F820F931FFC01808148EE62
:100F600053E0682F81E00E94A8008981882351F70F
:100F70006D960FB6F894DEBF0FBECDBFDF91CF9157
:100F80000895CF93DF93CDB7DEB787E390E0FC0100
:100F9000808187E390E02FEFFC0120838DE290E0D9
:100FA0002DE230E0F90120812065FC0120838EE2F2
:100FB00090E02EE230E0F90120812160FC012083E5
:100FC000DF91CF910895CF93DF93CDB7DEB7279709
:100FD0000FB6F894DEBF0FBECDBF9D838C8380918A
:100FE0002A01882F90E02C813D81B9010E94931045
:100FF000CB0183709078992324F401978C6F9F6FB5
:1010000001968B8380911E0190911F01009729F01A
:1010100088E291E09A83898304C086E291E09A8312
:1010200089838C819D818430910521F480912C01EC
:1010300080932D018C819D818130910521F48091D7
:101040002E0180932D0180912D01837080932D01BD
:1010500080912D01882F90E08130910509F1823037
:1010600091051CF4009751F094C08230910509F469
:101070005CC08330910509F46AC08BC08B818130DC
:1010800029F480912D018F5F80932D018B81823017
:1010900031F480912D01815080932D017AC079C067
:1010A0008B81882329F480912D018F5F80932D01FE
:1010B0008B818330C9F580912D018F5F80932D0145
:1010C00089819A81FC012081318180910001909178
:1010D0000101A901481B590BCA019923A4F4898174
:1010E0009A81FC01808191819C0120533D4F809128
:1010F000000190910101281B390B89819A81FC0123
:101100003183208311C089819A81FC012081318142
:101110008091000190910101281B390B89819A81EE
:10112000FC013183208335C034C08B81823029F4A7
:1011300080912D018F5F80932D018B81813031F45F
:1011400080912D01815080932D0123C022C08B817D
:101150008330A9F480912D018F5F80932D018981C7
:101160009A81FC01208131818091000190910101DF
:10117000280F391F89819A81FC01318320838B815B
:10118000882331F480912D01815080932D0100C07E
:1011900000008C819D818430910521F480912D0186
:1011A00080932C018C819D818130910521F4809167
:1011B0002D0180932E0127960FB6F894DEBF0FBE47
:1011C000CDBFDF91CF9108951F920F9200905F00E5
:1011D0000F92112400905B000F922F933F934F9337
:1011E0005F936F937F938F939F93AF93BF93EF938F
:1011F000FF93CF93DF9300D000D0CDB7DEB78091BF
:101200002601909127019A838983809128019091EA
:1012100029019C838B8380912F019091300101964D
:101220009093300180932F018BE390E02FEFFC012E
:1012300020838AE390E0FC01108288E390E028E3B9
:1012400030E0F90120812067FC0120830E94530BCC
:1012500080911801882309F1809124019091250142
:101260008F3FFFEF9F07C9F4809131018F5F80931B
:10127000310180913101813178F0809132018132E8
:1012800058F080911801882F90E090932501809369
:1012900024011092320108C007C0809132018F5F93
:1012A00080933201109231018091190188237CF4DE
:1012B0008FE290E020911C0130911D01220F331F1D
:1012C000322F20911901232BFC0120830EC08FE2C5
:1012D00090E020911A0130911B01220F331F322F11
:1012E00020911901232BFC01208300008EE290E065
:1012F000FC0180818823D4F788E390E028E330E084
:10130000F90120812160FC01208388E390E028E33B
:1013100030E0F90120812E7FFC01208383E290E000
:10132000FC01108283E290E020E4FC0120838FE244
:1013300090E0FC01808180932A0184E090E00E948B
:10134000E30781E090E00E94E3074091260150917D
:1013500027019A01A3E8BDE20E948410880F892F1B
:10136000881F990B919560ED72E0869F9001879F91
:10137000300D969F300D1124CA01821B930B909360
:1013800027018093260140912801509129019A015B
:10139000A3E8BDE20E948410880F892F881F990B53
:1013A000919560ED72E0869F9001879F300D969F2A
:1013B000300D1124CA01821B930B90932901809355
:1013C000280189819A818536910540F48091260112
:1013D000909127018D3BF2E09F0768F489819A8103
:1013E0008D3B22E09207A8F0809126019091270181
:1013F0008536910570F480911A0190911B0121E0CE
:1014000030E0A901481B590BCA0190931B0180933E
:101410001A018B819C818536910540F480912801C9
:10142000909129018D3B52E0950768F48B819C8156
:101430008D3BE2E09E07A8F0809128019091290160
:101440008536910570F480911C0190911D0121E079
:1014500030E0A901481B590BCA0190931D018093EC
:101460001C010F900F900F900F90DF91CF91FF9183
:10147000EF91BF91AF919F918F917F916F915F910C
:101480004F913F912F910F9000925B000F9000922F
:101490005F000F901F9018951F920F9200905F00B1
:1014A0000F92112400905B000F922F933F938F9324
:1014B0009F93EF93FF93CF93DF93CDB7DEB782E394
:1014C00090E022E330E0F901308120E82327FC019D
:1014D0002083DF91CF91FF91EF919F918F913F9169
:1014E0002F910F9000925B000F9000925F000F9081
:1014F0001F901895CF93DF93CDB7DEB787E590E0C7
:1015000027E530E0F9012081622F22E530E0F90182
:101510002081422F50E021E030E0042E02C0220F53
:10152000331F0A94E2F7262BFC01208383E590E029
:1015300023E530E0F90120812560FC012083DF9163
:10154000CF910895CF93DF93CDB7DEB787E590E0D5
:1015500027E530E0F90120812061FC0120838FE440
:1015600090E0FC0110828EE490E02EE430E0F9017E
:1015700020812B60FC0120838AE790E0FC0110822F
:101580008AE490E021E330E0FC013183208382E3B0
:1015900090E02FEFFC01208381E390E02FEFFC012E
:1015A0002083DF91CF910895CF93DF93CDB7DEB73E
:1015B00087E590E027E530E0F90120812068FC0113
:1015C000208385E490E025E430E0F901208129665C
:1015D000FC012083DF91CF910895CF93DF93CDB7A6
:1015E000DEB78BE890E02BE830E0F9012081216C38
:1015F000FC0120838AE890E02AE830E0F9012081AC
:101600002960FC0120838CE890E0FC01108286E8D0
:1016100090E020E230E0FC0131832083DF91CF9124
:101620000895CF93DF93CDB7DEB782E690E022E650
:1016300030E0F90120812460FC01208381E690E004
:1016400021E630E0F90120812B7FFC01208386E236
:1016500090E026E230E0F90120812760FC01208340
:1016600086E290E026E230E0F90120812062FC0170
:10167000208387E290E022E6FC01208386E290E06E
:1016800026E230E0F90120812860FC01208386E217
:1016900090E026E230E0F90120812064FC01208303
:1016A000DF91CF910895CF93DF9300D0CDB7DEB710
:1016B00080916F01282F81E0820F80936F018BEA68
:1016C000289F812D1124982F969596959695892F70
:1016D000880F890F880F880F922F981B892F90E011
:1016E00029E330E0F901208120958D5A9E4FFC01BD
:1016F00020838FEF8A8319820DC08981882F90E023
:101700008D5A9E4FFC0180819A8189238A83898129
:101710008F5F898389818B3080F38A818093180160
:101720000F900F90DF91CF910895CF93DF93CDB7B6
:10173000DEB787E590E027E530E0F9012081206100
:10174000FC012083DF91CF910895CF93DF93CDB734
:10175000DEB787E590E027E530E0F90120812F7EB4
:10176000FC012083DF91CF910895CF92DF92EF9219
:10177000FF92CF93DF93CDB7DEB7E2970FB6F89421
:10178000DEBF0FBECDBF6B877C878D879E87588B52
:101790004F873A8B298B1A8219828B859C859F8370
:1017A0008E8305C089819A8101969A8389836B858E
:1017B0007C858D859E850E9494116B017C018981B9
:1017C0009A81AA2797FDA095BA2FBC01CD010E944E
:1017D0009611DC01CB019C01AD0160E070E080E27C
:1017E00091E40E94AD12DC01CB019C01AD01C70167
:1017F000B6010E9446128823ACF68F859889813005
:10180000910509F4B9C08230910509F43AC10097F5
:1018100009F0BEC18B859C85AD85BE8528EE33E081
:1018200040E050E0BC01CD010E94A710DA01C901DF
:101830009F838E834E815F8128EE33E0429FC001FB
:10184000439F900D529F900D1124998788878E8118
:101850009F81845F9E4FFC01808180930B012B85CB
:101860003C8588859985A901481B590BCA019F832E
:101870008E838E819F8124E630E0B9010E9493100F
:10188000CB019F838E832E813F8144E6429FC0011E
:10189000439F900D112428853985820F931F9987C6
:1018A00088878E819F81845F9E4FFC018081809319
:1018B0000A012B853C8588859985A901481B590B10
:1018C000CA019F838E838E819F812AE030E0B90117
:1018D0000E949310CB019F838E838E819F81880FFE
:1018E000991F9C01220F331F220F331F820F931F5A
:1018F00028853985820F931F998788878E819F81DC
:10190000845F9E4FFC018081809308012B853C857C
:1019100088859985A901481B590BCA019F838E832D
:101920008E819F81845F9E4FFC018081809307019F
:1019300089819A81833091052CF089819A81019661
:101940009A83898385E090E09C838B830DC08B8193
:101950009C810197895F9E4F2FEFFC0120838B8133
:101960009C8101979C838B832B813C8189819A8107
:101970008217930764F30CC18B859C85AD85BE856A
:101980002CE330E040E050E0BC01CD010E94A71004
:10199000DA01C9012CE030E040E050E0BC01CD01AB
:1019A0000E94A710DC01CB018D838B859C85AD85C2
:1019B000BE852CE330E040E050E0BC01CD010E9448
:1019C000A710DC01CB018A878D81882311F48CE07C
:1019D0008D839A858DEC989F812D1124869586950F
:1019E0008695880F282F220F220F820FF92FF81BC0
:1019F0008F2F882F90E0845F9E4FFC018081809321
:101A000007019A858DEC989F812D112486958695E6
:101A10008695882F90E0845F9E4FFC0180818093A3
:101A200008019D818DEC989F812D112486958695C6
:101A30008695880F282F220F220F820FF92FF81B6F
:101A40008F2F882F90E0845F9E4FFC0180818093D0
:101A50000A018D818A3020F48FEF80930B0198C0AA
:101A60009D818DEC989F812D112486958695869574
:101A7000882F90E0845F9E4FFC01808180930B0152
:101A800087C08B859C85AD85BE852CE330E040E02A
:101A900050E0BC01CD010E94A710DA01C9012CE081
:101AA00030E040E050E0BC01CD010E94A710DC0115
:101AB000CB018D838B859C85AD85BE852CE330E085
:101AC00040E050E0BC01CD010E94A710DC01CB0139
:101AD0008A8789899A89009719F08D81845F8D831F
:101AE0009A858DEC989F812D1124869586958695F3
:101AF000880F282F220F220F820FF92FF81B8F2F0C
:101B0000882F90E0845F9E4FFC01808180930701C5
:101B10009A858DEC989F812D1124869586958695C2
:101B2000882F90E0845F9E4FFC01808180930801A4
:101B30009D818DEC989F812D1124869586958695A3
:101B4000880F282F220F220F820FF92FF81B8F2FBB
:101B5000882F90E0845F9E4FFC01808180930A0172
:101B60008D818A3020F48FEF80930B0110C09D810E
:101B70008DEC989F812D1124869586958695882FCA
:101B800090E0845F9E4FFC01808180930B010000F8
:101B9000E2960FB6F894DEBF0FBECDBFDF91CF91B6
:101BA000FF90EF90DF90CF900895CF93DF93CDB764
:101BB000DEB7E5970FB6F894DEBF0FBECDBF80E865
:101BC0008B831C821D820E947A0A0E94A20A0E94B4
:101BD000ED0A0E94C107789481E390E02FEFFC01A9
:101BE000208387E390E02FEFFC01208384E390E0E3
:101BF0002FEFFC01208385E390E0FC0110828AE353
:101C000090E02FEFFC0120838BE390E0FC01108239
:101C10008FE290E021E0FC01208381E690E02FEF4D
:101C2000FC01208382E290E02FEFFC01208383E21D
:101C300090E0FC011082809124019091250199236C
:101C40000CF481C08091240190912501843091058C
:101C5000B9F1853091053CF48130910571F0823005
:101C6000910501F13AC08031910589F180329105E9
:101C700089F188309105E9F030C09091190180E830
:101C800089278093190180911E0190911F0121E005
:101C900030E0A901481B590BCA0190931F018093A2
:101CA0001E011BC09091190180E4892780931901BE
:101CB00014C09091190181E08927809319010DC00A
:101CC0009091190180E289278093190106C00E9432
:101CD000A50B03C00E94950B000080911901882F6D
:101CE00090E08F77992780329105C9F08132910574
:101CF0001CF4009741F021C08034910549F08036F2
:101D00009105A1F01AC0109201011092000115C0B6
:101D100081E090E090930101809300010EC082E089
:101D200090E0909301018093000107C084E090E06F
:101D3000909301018093000100008FEF9FEF90933B
:101D400025018093240180911E0190911F0100972D
:101D500091F020911C0130911D01809128019091FA
:101D60002901CC01A0E0B0E042E050E0BC01CD018F
:101D70000E94B50B11C020911A0130911B01809176
:101D8000260190912701CC01A0E0B0E042E050E0B4
:101D9000BC01CD010E94B50B84E090E09A83898359
:101DA000ADC18AE390E02FEFFC0120838BE390E04C
:101DB00029813A81295F3E4FF9012081FC0120836E
:101DC00088E390E028E330E0F90120812F78FC01DE
:101DD000208388E390E028E330E0F9014081298105
:101DE0003A812E5F3E4FF9012081242BFC01208394
:101DF00080E090E0A6E9B3E48E839F83A887B9874B
:101E00002BEA3AEA4AEA50E46E817F818885998517
:101E10000E944A12DC01CB018A879B87AC87BD8771
:101E200020E030E040E85FE36A857B858C859D8516
:101E30000E94FC1088231CF481E08E8791C020E072
:101E400030E04FE753E46A857B858C859D850E9451
:101E5000461218160CF07BC020E030E04AE754E44C
:101E60006E817F81888599850E940011DC01CB01FC
:101E70008F87988BA98BBA8B20E030E04AE755E436
:101E80006F85788989899A890E944A12DC01CB0181
:101E90008B8B9C8BAD8BBE8B20E030E040E85FE30A
:101EA0006B897C898D899E890E94FC1088232CF483
:101EB00081E090E0988F8F8B3FC020E03FEF4FE7AD
:101EC00057E46B897C898D899E890E944612181679
:101ED0004CF520E030E040E251E46F857889898953
:101EE0009A890E944A12DC01CB01BC01CD010E94FB
:101EF0006811DC01CB01988F8F8B0FC080E991E0D6
:101F00009A8F898F898D9A8D0197F1F79A8F898F92
:101F10008F89988D0197988F8F8B8F89988D0097D7
:101F200069F724C06B897C898D899E890E9468111C
:101F3000DC01CB01988F8F8B8F89988D9C8F8B8F35
:101F40008B8D9C8D0197F1F79C8F8B8F0FC06A85CD
:101F50007B858C859D850E946811DC01CB018E8775
:101F60008E858D8F8D8D8A95F1F78D8F8BE390E027
:101F70002FEFFC01208380E090E0A8ECB3E48E8F8B
:101F80009F8FA8A3B9A32BEA3AEA4AEA50E46E8DE0
:101F90007F8D88A199A10E944A12DC01CB018AA3FE
:101FA0009BA3ACA3BDA320E030E040E85FE36AA1BF
:101FB0007BA18CA19DA10E94FC1088231CF481E0D0
:101FC0008EA391C020E030E04FE753E46AA17BA1EB
:101FD0008CA19DA10E94461218160CF07BC020E037
:101FE00030E04AE754E46E8D7F8D88A199A10E946C
:101FF0000011DC01CB018FA398A7A9A7BAA720E005
:1020000030E04AE755E46FA178A589A59AA50E941A
:102010004A12DC01CB018BA79CA7ADA7BEA720E08D
:1020200030E040E85FE36BA57CA58DA59EA50E94EE
:10203000FC1088232CF481E090E098AB8FA73FC080
:1020400020E03FEF4FE757E46BA57CA58DA59EA54B
:102050000E94461218164CF520E030E040E251E4B0
:102060006FA178A589A59AA50E944A12DC01CB012F
:10207000BC01CD010E946811DC01CB0198AB8FA798
:102080000FC080E991E09AAB89AB89A99AA9019721
:10209000F1F79AAB89AB8FA598A9019798AB8FA759
:1020A0008FA598A9009769F724C06BA57CA58DA57D
:1020B0009EA50E946811DC01CB0198AB8FA78FA56C
:1020C00098A99CAB8BAB8BA99CA90197F1F79CAB12
:1020D0008BAB0FC06AA17BA18CA19DA10E9468114E
:1020E000DC01CB018EA38EA18DAB8DA98A95F1F772
:1020F0008DAB89819A8101979A83898389819A819D
:1021000099230CF04ECE97CDA29FB001B39FC00192
:10211000A39F700D811D1124911DB29F700D811D13
:102120001124911D089597FB072E16F4009407D0F3
:1021300077FD09D00E94E81007FC05D03EF4909589
:1021400081959F4F0895709561957F4F0895A1E205
:102150001A2EAA1BBB1BFD010DC0AA1FBB1FEE1F21
:10216000FF1FA217B307E407F50720F0A21BB30B6C
:10217000E40BF50B661F771F881F991F1A9469F7E8
:1021800060957095809590959B01AC01BD01CF0144
:102190000895052E97FB1EF400940E94E01057FD51
:1021A00007D00E94A71007FC03D04EF40C94E01057
:1021B00050954095309521953F4F4F4F5F4F089573
:1021C00090958095709561957F4F8F4F9F4F0895A3
:1021D000AA1BBB1B51E107C0AA1FBB1FA617B7074D
:1021E00010F0A61BB70B881F991F5A95A9F7809569
:1021F0009095BC01CD010895D4D008F481E00895F4
:102200000CD00AC102D140F0F9D030F021F45F3F88
:1022100019F0EBC0511134C1EEC00FD198F39923DE
:10222000C9F35523B1F3951B550BBB27AA2762179A
:102230007307840738F09F5F5F4F220F331F441FDF
:10224000AA1FA9F333D00E2E3AF0E0E830D0915017
:102250005040E695001CCAF729D0FE2F27D0660F04
:10226000771F881FBB1F261737074807AB07B0E843
:1022700009F0BB0B802DBF01FF2793585F4F2AF059
:102280009E3F510568F0B1C0FBC05F3FECF3983E44
:10229000DCF3869577956795B795F7959F5FC9F7B6
:1022A000880F911D9695879597F90895E1E0660F3F
:1022B000771F881FBB1F621773078407BA0720F0B8
:1022C000621B730B840BBA0BEE1F88F7E095089521
:1022D000BCD088F09F5790F0B92F9927B751A0F044
:1022E000D1F0660F771F881F991F1AF0BA95C9F7AA
:1022F00012C0B13081F0C3D0B1E00895C0C0672FE3
:10230000782F8827B85F39F0B93FCCF38695779559
:102310006795B395D9F73EF4909580957095619542
:102320007F4F8F4F9F4F0895E89409C097FB3EF46D
:1023300090958095709561957F4F8F4F9F4F992312
:10234000A9F0F92F96E9BB279395F6958795779590
:102350006795B795F111F8CFFAF4BB0F11F460FF50
:102360001BC06F5F7F4F8F4F9F4F16C0882311F0A8
:1023700096E911C0772321F09EE8872F762F05C0BC
:10238000662371F096E8862F70E060E02AF09A9557
:10239000660F771F881FDAF7880F9695879597F94C
:1023A0000895990F0008550FAA0BE0E8FEEF1616E6
:1023B0001706E807F907C0F012161306E407F50739
:1023C00098F0621B730B840B950B39F40A2661F0AD
:1023D000232B242B252B21F408950A2609F4A14050
:1023E000A6958FEF811D811D089597F99F6780E85D
:1023F00070E060E008959FEF80EC089500240A9457
:102400001616170618060906089500240A941216CF
:102410001306140605060895092E0394000C11F402
:10242000882352F0BB0F40F4BF2B11F460FF04C0AF
:102430006F5F7F4F8F4F9F4F089557FD9058440F08
:10244000551F59F05F3F71F04795880F97FB991F13
:1024500061F09F3F79F087950895121613061406D0
:10246000551FF2CF4695F1DF08C01616170618065D
:10247000991FF1CF86957105610508940895E89438
:10248000BB2766277727CB0197F908958ADF08F4E1
:102490008FEF08950BD0C0CFB1DF28F0B6DF18F072
:1024A000952309F0A2CFA7CF1124EACFC6DFA0F36E
:1024B000959FD1F3950F50E0551F629FF001729FD9
:1024C000BB27F00DB11D639FAA27F00DB11DAA1FF8
:1024D000649F6627B00DA11D661F829F2227B00D45
:1024E000A11D621F739FB00DA11D621F839FA00DD0
:1024F000611D221F749F3327A00D611D231F849F20
:10250000600D211D822F762F6A2F11249F57504076
:102510008AF0E1F088234AF0EE0FFF1FBB1F661F11
:10252000771F881F91505040A9F79E3F510570F0CA
:102530005CCFA6CF5F3FECF3983EDCF386957795B2
:102540006795B795F795E7959F5FC1F7FE2B880FC5
:10255000911D9695879597F90895FA01EE0FFF1F43
:1025600030962105310599F16115710561F48038C6
:10257000BFE39B0749F168949038810561F080388A
:10258000BFEF9B0741F0992342F5FF3FE10531057D
:10259000210511F1E8940894E795D901AA2329F4BB
:1025A000AB2FBE2FF85FD0F310C0FF5F70F4A6957D
:1025B000E0F7F73950F019F0FF3A38F49F779F931E
:1025C0000CD00F9007FC905808953EF014CF60E0B7
:1025D00070E080E89FE308954FE79F775F934F9304
:1025E0003F932F939ED02F913F914F915F9152DF58
:1025F00005C019F40EF0F9CE42CFFDCE26DFC8F3A8
:102600009638C0F707F80F92E8942BE33AEA48EBC4
:102610005FE74EDF0F920F920F924DB75EB70F92AA
:10262000C0D0ECE8F0E016D04F915F91EF91FF91B0
:10263000E595EE1FFF1F49F0FE57E0684427EE0FB7
:10264000441FFA95E1F74195550B32D00F9007FEE4
:1026500026C00895DF93CF931F930F93FF92EF92BD
:10266000DF927B018C01689405C0DA2EEF011EDF3A
:10267000FE01E894A5912591359145915591AEF3D0
:10268000EF01D4D0FE019701A801DA9479F7DF9029
:10269000EF90FF900F911F91CF91DF9108959B01D3
:1026A000AC0160E070E080E89FE3AACD9ECE11C14E
:1026B000CCDEE8F39923D9F3940F511DBBF391506D
:1026C000504094F059F0882332F0660F771F881F2E
:1026D00091505040C1F79E3F510544F7880F911D1E
:1026E0009695879597F908955F3FACF0983E9CF0DA
:1026F000BB27869577956795B79508F4B160939554
:10270000C1F7BB0F58F711F460FFE8CF6F5F7F4F41
:102710008F4F9F4FE3CFB4CE0EF0DBC06CCE6894EA
:1027200064CE93DEC8F39923D1F3C6F3DF93CF933E
:102730001F930F93FF92C92FDD2788232AF021973B
:10274000660F771F881FDAF720E030E040E85FEB84
:102750009FE3883920F0803E30F021968F7755D066
:10276000E4EBF0E003C051D0E1EEF0E073DF8B0169
:10277000BE01EC01FB2E6F5771097595771F880B11
:10278000990BD4DD28E132E741E35FE38FDEAF2D23
:102790009801AE01FF900F911F91CF91DF9146D02C
:1027A0003BCEFA01DC01AA0FBB1F9B01AC01BF5756
:1027B00028F422273327442750781FC0B75188F4C4
:1027C000AB2F0024469537952795011CA395D2F38E
:1027D000002069F0220F331F441FB395DAF30DD0A8
:1027E00013C061307105A0E88A07B94630F49B0137
:1027F000AC016627772788279078309621F02083D0
:1028000031834283538308955058BB27AA270ED0A3
:1028100003CEF4DD30F0F9DD20F031F49F3F11F408
:102820001EF4E9CD0EF4E095E7FBDFCDE92F05DEE0
:1028300080F3BA17620773078407950718F071F4DD
:102840009EF51DCE0EF4E0950B2EBA2FA02D0B0198
:10285000B90190010C01CA01A0011124FF27591BE5
:1028600099F0593F50F4503E68F11A16F040A22FEB
:10287000232F342F4427585FF3CF4695379527955C
:10288000A795F0405395C9F77EF41F16BA0B620B5B
:10289000730B840BBAF09150A1F0FF0FBB1F661FA2
:1028A000771F881FC2F70EC0BA0F621F731F841FE5
:1028B00048F4879577956795B795F7959E3F08F00B
:1028C000B3CF9395880F08F09927EE0F97958795CA
:1028D00008959F3F31F0915020F487957795679543
:1028E000B795880F911D9695879597F90895FC01E6
:1028F00001900020E9F7809590958E0F9F1F089515
:04290000F894FFCF79
:1029040001000010203040FFFFFFFFFFC0F9A4B01A
:08291400999282F88098FF9867
:00000001FF
