:100000000C9487000C94A6000C94A6000C94A600F7
:100010000C94A6000C94A6000C94A6000C94A600C8
:100020000C94A6000C9443020C94A6000C94A60019
:100030000C94A6000C94A6000C94A6000C94A600A8
:100040000C9494010C94A6000C94A6000C94A600A9
:100050000C94A6000C9471020C94A6000C94A600BB
:100060000C94A6000C94A6000C94A6000C94A60078
:100070000C94A6000C94A6000C94A6000C94A60068
:100080000C94A6000C94A6000C94A60007634236BC
:10009000B79BD8A71A39685618AEBAAB558C1D3C19
:1000A000B7CC5763BD6DEDFD753EF6177231BF00DD
:1000B0000000803F08000000BE922449123EABAA17
:1000C000AA2ABECDCCCC4C3E00000080BEABAAAA72
:1000D000AA3E00000000BF000000803F00000000BA
:1000E00000084178D3BB4387D1133D190E3CC3BDF3
:1000F0004282AD2B3E68EC8276BED98FE1A93E4CA0
:1001000080EFFFBE01C4FF7F3F000000000011240C
:100110001FBECFEFD0E1DEBFCDBF11E0A0E0B1E068
:10012000E2EEF3E100E00BBF02C007900D92A831B0
:10013000B107D9F711E0A8E1B1E001C01D92AD33DC
:10014000B107E1F70E949D040C94EF090C940000A4
:10015000CF93DF93CDB7DEB787E390E0FC018081DA
:1001600087E390E02FEFFC0120838DE290E02DE209
:1001700030E0F90120812065FC0120838EE290E0CF
:100180002EE230E0F90120812160FC012083DF9123
:10019000CF910895CF93DF9300D000D01F92CDB7B9
:1001A000DEB79B838A8380912401882F90E02A8187
:1001B0003B81B9010E944C06CB0183709078992352
:1001C00024F401978C6F9F6F019689838A819B81AC
:1001D0008430910521F480912501809326018A8144
:1001E0009B818130910521F4809127018093260124
:1001F0008091260183708093260180912601882FAB
:1002000090E08130910501F1823091051CF4009756
:1002100049F070C082309105D1F18330910509F425
:1002200048C068C08981813029F4809126018F5FA0
:10023000809326018981823031F48091260181509A
:100240008093260157C056C08981882329F4809164
:1002500026018F5F8093260189818330B9F48091D4
:1002600026018F5F80932601209122013091230186
:100270008091160190911701A901481B590BCA01E1
:100280009370909323018093220134C033C08981FD
:10029000823029F4809126018F5F80932601898125
:1002A000813031F48091260181508093260122C053
:1002B00021C089818330A1F4809126018F5F8093D2
:1002C0002601209122013091230180911601909105
:1002D0001701820F931F9370909323018093220143
:1002E0008981882331F480912601815080932601F1
:1002F00000C000008A819B818430910521F48091A7
:100300002601809325018A819B818130910521F40A
:1003100080912601809327010F900F900F900F90EE
:100320000F90DF91CF9108951F920F9200905F0080
:100330000F92112400905B000F922F933F934F93E5
:100340005F936F937F938F939F93AF93BF93EF933D
:10035000FF93CF93DF93CDB7DEB7809128019091C3
:100360002901019690932901809328018BE390E065
:100370002FEFFC0120838AE390E0FC01108288E3E8
:1003800090E028E330E0F90120812067FC01208320
:100390000E94110380911801882309F180911E01A8
:1003A00090911F018F3FFFEF9F07C9F480912A01B1
:1003B0008F5F80932A0180912A01813178F08091AA
:1003C0002B01813258F080911801882F90E0909392
:1003D0001F0180931E0110922B0108C007C080915D
:1003E0002B018F5F80932B0110922A018FE290E006
:1003F00020911901FC01208300008EE290E0FC01B5
:1004000080818823D4F788E390E028E330E0F90185
:1004100020812160FC01208388E390E028E330E024
:10042000F90120812E7FFC01208383E290E0FC0112
:10043000108283E290E020E4FC0120838FE290E0D0
:10044000FC0180818093240184E090E00E94CA0036
:1004500081E090E00E94CA00DF91CF91FF91EF917F
:10046000BF91AF919F918F917F916F915F914F91CC
:100470003F912F910F9000925B000F9000925F00D0
:100480000F901F9018951F920F9200905F000F928F
:10049000112400905B000F922F933F938F939F93B3
:1004A000EF93FF93CF93DF93CDB7DEB783E290E076
:1004B00023E230E0F901308121E02327FC01208391
:1004C000DF91CF91FF91EF919F918F913F912F916C
:1004D0000F9000925B000F9000925F000F901F90B2
:1004E00018951F920F9200905F000F9211240090B8
:1004F0005B000F922F933F938F939F93EF93FF9304
:10050000CF93DF93CDB7DEB785E290E0FC01808129
:10051000882F90E0909339018093380183E490E034
:100520002091380130913901FC012083DF91CF9176
:10053000FF91EF919F918F913F912F910F9000929A
:100540005B000F9000925F000F901F901895CF9363
:10055000DF93CDB7DEB787E590E027E530E0F9011E
:100560002081622F22E530E0F9012081422F50E006
:1005700021E030E0042E02C0220F331F0A94E2F77C
:10058000262BFC01208383E590E023E530E0F90190
:1005900020812560FC012083DF91CF910895CF93C6
:1005A000DF93CDB7DEB787E590E027E530E0F901CE
:1005B00020812068FC01208385E490E025E430E080
:1005C000F90120812A66FC012083DF91CF910895F3
:1005D000CF93DF93CDB7DEB78BE890E02BE830E028
:1005E000F9012081216CFC0120838AE890E02AE84F
:1005F00030E0F90120812960FC0120838CE890E043
:10060000FC0110828DE790E020E1FC01208386E868
:1006100090E020EA30E0FC0131832083DF91CF912C
:100620000895CF93DF9300D0CDB7DEB780913A0124
:10063000282F81E0820F80933A018BEA289F812D39
:100640001124982F969596959695892F880F890F46
:10065000880F880F922F981B892F90E029E330E0B4
:10066000F90120812095845D9E4FFC0120838FEF4E
:100670008A8319820DC08981882F90E0845D9E4F06
:10068000FC0180819A8189238A8389818F5F898394
:1006900089818B3080F38A81809318010F900F90AD
:1006A000DF91CF910895CF92DF92EF92FF92CF9397
:1006B000DF93CDB7DEB72E970FB6F894DEBF0FBE2F
:1006C000CDBF9A8789871A82198289859A859E83E8
:1006D0008D8305C089819A8101969A838983898552
:1006E0009A85CC01A0E0B0E0BC01CD010E940C07CE
:1006F0006B017C0189819A81AA2797FDA095BA2F69
:10070000BC01CD010E940E07DC01CB019C01AD01B3
:1007100060E070E080E291E40E942508DC01CB01FA
:100720009C01AD01C701B6010E94BE07882394F663
:1007300089859A85969587959695879596958795B7
:100740009C01A5ECB0E20E943D06929582958F70C7
:1007500089279F7089279E838D834D815E8128EE36
:1007600033E0429FC001439F900D529F900D112492
:1007700098878F838D819E81865F9E4FFC0180814B
:10078000809309018F81988529853A85A901481BA5
:10079000590BCA019E838D838D819E8124E630E0B2
:1007A000B9010E944C06CB019E838D832D813E8131
:1007B00044E6429FC001439F900D11242F8138854C
:1007C000820F931F98878F838D819E81865F9E4FB6
:1007D000FC018081809308018F81988529853A8565
:1007E000A901481B590BCA019E838D838D819E816F
:1007F0002AE030E0B9010E944C06CB019E838D8334
:100800008D819E81880F991F9C01220F331F220F1B
:10081000331F820F931F2F813885820F931F988774
:100820008F838D819E81865F9E4FFC0180818093A6
:1008300006018F81988529853A85A901481B590BA6
:10084000CA019E838D838D819E81865F9E4FFC01B0
:1008500080818093050189819A81833091052CF0F4
:1008600089819A8101969A83898385E090E09C83AF
:100870008B830DC08B819C8101978B5F9E4F2FEFE7
:10088000FC0120838B819C8101979C838B832B812E
:100890003C8189819A818217930764F32E960FB663
:1008A000F894DEBF0FBECDBFDF91CF91FF90EF90E8
:1008B000DF90CF900895CF93DF93CDB7DEB782E678
:1008C00090E022E630E0F90120812460FC012083E1
:1008D00081E690E021E630E0F90120812B7FFC01E8
:1008E000208386E290E026E230E0F9012081276053
:1008F000FC01208386E290E026E230E0F9012081CD
:100900002062FC01208387E290E022E6FC01208344
:1009100086E290E026E230E0F90120812860FC01C7
:10092000208386E290E026E230E0F9012081206415
:10093000FC012083DF91CF910895CF93DF93CDB752
:10094000DEB76A970FB6F894DEBF0FBECDBF0E9428
:10095000A7020E94CF020E94E8020E94A800789499
:1009600081E390E02FEFFC01208387E390E02FEFFD
:10097000FC01208384E390E02FEFFC01208385E3DA
:1009800090E0FC0110828AE390E02FEFFC012083CD
:100990008BE390E0FC0110828FE290E021E0FC010B
:1009A000208381E690E02FEFFC01208382E290E03B
:1009B0002FEFFC01208383E290E02FEFFC012083E6
:1009C0000E945B0480911E0190911F0199230CF4F9
:1009D00056C080911E0190911F018230910569F0EF
:1009E0008430910589F081309105A9F49091190125
:1009F00080E88927809319010EC09091190180E445
:100A000089278093190107C09091190180E28927F5
:100A100080931901000080911901882F90E08032A5
:100A20009105D9F0813291051CF4009741F021C065
:100A30008034910559F080369105B1F01AC081E0FB
:100A400090E0909317018093160113C082E090E02C
:100A500090931701809316010CC084E090E090936E
:100A600017018093160105C010921701109216010C
:100A700000008FEF9FEF90931F0180931E0188EB82
:100A800092E20E94530384E090E09A838983EFC04E
:100A90008AE390E02FEFFC0120838BE390E0298133
:100AA0003A812B5F3E4FF9012081FC01208388E3CE
:100AB00090E028E330E0F90120812F78FC012083C9
:100AC00088E390E028E330E0F901408129813A8110
:100AD00020503F4FF9012081242BFC01208380E02E
:100AE00090E0A8ECB3E48B839C83AD83BE832BEAB8
:100AF0003AEA4AEA50E46B817C818D819E810E94B2
:100B0000C207DC01CB018F839887A987BA8720E0D1
:100B100030E040E85FE36F81788589859A850E949F
:100B2000740688231CF481E08B8791C020E030E0BC
:100B30004FE753E46F81788589859A850E94BE07C7
:100B400018160CF07BC020E030E04AE754E46B81DB
:100B50007C818D819E810E947806DC01CB018C878F
:100B60009D87AE87BF8720E030E04AE755E46C857B
:100B70007D858E859F850E94C207DC01CB01888B15
:100B8000998BAA8BBB8B20E030E040E85FE368895B
:100B900079898A899B890E94740688232CF481E0D4
:100BA00090E09D8B8C8B3FC020E03FEF4FE757E4F8
:100BB000688979898A899B890E94BE0718164CF535
:100BC00020E030E040E251E46C857D858E859F8594
:100BD0000E94C207DC01CB01BC01CD010E94E006EE
:100BE000DC01CB019D8B8C8B0FC080E991E09F8B4A
:100BF0008E8B8E899F890197F1F79F8B8E8B8C89C5
:100C00009D8901979D8B8C8B8C899D89009769F7B5
:100C100024C0688979898A899B890E94E006DC0161
:100C2000CB019D8B8C8B8C899D89998F888F888D2A
:100C3000998D0197F1F7998F888F0FC06F81788513
:100C400089859A850E94E006DC01CB018B878B8524
:100C50008A8F8A8D8A95F1F78A8F8BE390E02FEF48
:100C6000FC01208389819A8101979A8389838981F4
:100C70009A8199230CF00CCFA5CEA29FB001B39F0F
:100C8000C001A39F700D811D1124911DB29F700D95
:100C9000811D1124911D089597FB072E16F40094D1
:100CA00007D077FD09D00E94600607FC05D03EF40E
:100CB000909581959F4F0895709561957F4F089508
:100CC000AA1BBB1B51E107C0AA1FBB1FA617B70772
:100CD00010F0A61BB70B881F991F5A95A9F780958E
:100CE0009095BC01CD010895D4D008F481E0089519
:100CF0000CD00AC102D140F0F9D030F021F45F3FAE
:100D000019F0EBC0511134C1EEC00FD198F3992303
:100D1000C9F35523B1F3951B550BBB27AA276217BF
:100D20007307840738F09F5F5F4F220F331F441F04
:100D3000AA1FA9F333D00E2E3AF0E0E830D091503C
:100D40005040E695001CCAF729D0FE2F27D0660F29
:100D5000771F881FBB1F261737074807AB07B0E868
:100D600009F0BB0B802DBF01FF2793585F4F2AF07E
:100D70009E3F510568F0B1C0FBC05F3FECF3983E69
:100D8000DCF3869577956795B795F7959F5FC9F7DB
:100D9000880F911D9695879597F90895E1E0660F64
:100DA000771F881FBB1F621773078407BA0720F0DD
:100DB000621B730B840BBA0BEE1F88F7E095089546
:100DC000BCD088F09F5790F0B92F9927B751A0F069
:100DD000D1F0660F771F881F991F1AF0BA95C9F7CF
:100DE00012C0B13081F0C3D0B1E00895C0C0672F08
:100DF000782F8827B85F39F0B93FCCF3869577957F
:100E00006795B395D9F73EF4909580957095619567
:100E10007F4F8F4F9F4F0895E89409C097FB3EF492
:100E200090958095709561957F4F8F4F9F4F992337
:100E3000A9F0F92F96E9BB279395F69587957795B5
:100E40006795B795F111F8CFFAF4BB0F11F460FF75
:100E50001BC06F5F7F4F8F4F9F4F16C0882311F0CD
:100E600096E911C0772321F09EE8872F762F05C0E1
:100E7000662371F096E8862F70E060E02AF09A957C
:100E8000660F771F881FDAF7880F9695879597F971
:100E90000895990F0008550FAA0BE0E8FEEF16160B
:100EA0001706E807F907C0F012161306E407F5075E
:100EB00098F0621B730B840B950B39F40A2661F0D2
:100EC000232B242B252B21F408950A2609F4A14075
:100ED000A6958FEF811D811D089597F99F6780E882
:100EE00070E060E008959FEF80EC089500240A947C
:100EF0001616170618060906089500240A941216F5
:100F00001306140605060895092E0394000C11F427
:100F1000882352F0BB0F40F4BF2B11F460FF04C0D4
:100F20006F5F7F4F8F4F9F4F089557FD9058440F2D
:100F3000551F59F05F3F71F04795880F97FB991F38
:100F400061F09F3F79F087950895121613061406F5
:100F5000551FF2CF4695F1DF08C016161706180682
:100F6000991FF1CF86957105610508940895E8945D
:100F7000BB2766277727CB0197F908958ADF08F406
:100F80008FEF08950BD0C0CFB1DF28F0B6DF18F097
:100F9000952309F0A2CFA7CF1124EACFC6DFA0F393
:100FA000959FD1F3950F50E0551F629FF001729FFE
:100FB000BB27F00DB11D639FAA27F00DB11DAA1F1D
:100FC000649F6627B00DA11D661F829F2227B00D6A
:100FD000A11D621F739FB00DA11D621F839FA00DF5
:100FE000611D221F749F3327A00D611D231F849F45
:100FF000600D211D822F762F6A2F11249F5750409C
:101000008AF0E1F088234AF0EE0FFF1FBB1F661F36
:10101000771F881F91505040A9F79E3F510570F0EF
:101020005CCFA6CF5F3FECF3983EDCF386957795D7
:101030006795B795F795E7959F5FC1F7FE2B880FEA
:10104000911D9695879597F90895FA01EE0FFF1F68
:1010500030962105310599F16115710561F48038EB
:10106000BFE39B0749F168949038810561F08038AF
:10107000BFEF9B0741F0992342F5FF3FE1053105A2
:10108000210511F1E8940894E795D901AA2329F4E0
:10109000AB2FBE2FF85FD0F310C0FF5F70F4A695A2
:1010A000E0F7F73950F019F0FF3A38F49F779F9343
:1010B0000CD00F9007FC905808953EF014CF60E0DC
:1010C00070E080E89FE308954FE79F775F934F9329
:1010D0003F932F939ED02F913F914F915F9152DF7D
:1010E00005C019F40EF0F9CE42CFFDCE26DFC8F3CD
:1010F0009638C0F707F80F92E8942BE33AEA48EBEA
:101100005FE74EDF0F920F920F924DB75EB70F92CF
:10111000C0D0ECE8F0E016D04F915F91EF91FF91D5
:10112000E595EE1FFF1F49F0FE57E0684427EE0FDC
:10113000441FFA95E1F74195550B32D00F9007FE09
:1011400026C00895DF93CF931F930F93FF92EF92E2
:10115000DF927B018C01689405C0DA2EEF011EDF5F
:10116000FE01E894A5912591359145915591AEF3F5
:10117000EF01D4D0FE019701A801DA9479F7DF904E
:10118000EF90FF900F911F91CF91DF9108959B01F8
:10119000AC0160E070E080E89FE3AACD9ECE11C173
:1011A000CCDEE8F39923D9F3940F511DBBF3915092
:1011B000504094F059F0882332F0660F771F881F53
:1011C00091505040C1F79E3F510544F7880F911D43
:1011D0009695879597F908955F3FACF0983E9CF0FF
:1011E000BB27869577956795B79508F4B160939579
:1011F000C1F7BB0F58F711F460FFE8CF6F5F7F4F67
:101200008F4F9F4FE3CFB4CE0EF0DBC06CCE68940F
:1012100064CE93DEC8F39923D1F3C6F3DF93CF9363
:101220001F930F93FF92C92FDD2788232AF0219760
:10123000660F771F881FDAF720E030E040E85FEBA9
:101240009FE3883920F0803E30F021968F7755D08B
:10125000E4EBF0E003C051D0E1EEF0E073DF8B018E
:10126000BE01EC01FB2E6F5771097595771F880B36
:10127000990BD4DD28E132E741E35FE38FDEAF2D48
:101280009801AE01FF900F911F91CF91DF9146D051
:101290003BCEFA01DC01AA0FBB1F9B01AC01BF577B
:1012A00028F422273327442750781FC0B75188F4E9
:1012B000AB2F0024469537952795011CA395D2F3B3
:1012C000002069F0220F331F441FB395DAF30DD0CD
:1012D00013C061307105A0E88A07B94630F49B015C
:1012E000AC016627772788279078309621F02083F5
:1012F00031834283538308955058BB27AA270ED0C9
:1013000003CEF4DD30F0F9DD20F031F49F3F11F42D
:101310001EF4E9CD0EF4E095E7FBDFCDE92F05DE05
:1013200080F3BA17620773078407950718F071F402
:101330009EF51DCE0EF4E0950B2EBA2FA02D0B01BD
:10134000B90190010C01CA01A0011124FF27591B0A
:1013500099F0593F50F4503E68F11A16F040A22F10
:10136000232F342F4427585FF3CF46953795279581
:10137000A795F0405395C9F77EF41F16BA0B620B80
:10138000730B840BBAF09150A1F0FF0FBB1F661FC7
:10139000771F881FC2F70EC0BA0F621F731F841F0A
:1013A00048F4879577956795B795F7959E3F08F030
:1013B000B3CF9395880F08F09927EE0F97958795EF
:1013C00008959F3F31F0915020F487957795679568
:1013D000B795880F911D9695879597F90895F8947C
:0213E000FFCF3D
:1013E2000010203040FFFFFFFFFFC0F9A4B0999228
:0813F20082F88098FF980100C9
:00000001FF
