:100000000C9497000C94B6000C94B6000C94B600B7
:100010000C94B6000C94B6000C94B6000C94B60088
:100020000C94B6000C94B6000C94B6000C94B60078
:100030000C94B6000C94B6000C94B6000C94B60068
:100040000C94B6000C94B6000C94B6000C94B60058
:100050000C94B6000C94B6000C94B6000C94B60048
:100060000C94B6000C94B6000C94B6000C94B60038
:100070000C94B6000C94B6000C94B6000C94B60028
:100080000C94B6000C9499030C94B600D903B003F9
:10009000B003B003B003B003B003B003D903B0039F
:1000A000B003B003B003B003B003B003E303B00385
:1000B000B003B003B003B003B003B003B003B003A8
:1000C000B003B003B003B003B003B003E303B00365
:1000D000B003B003B003B003B003B003B003B00388
:1000E000B003B003B003B003B003B003FA03B0032E
:1000F000B003B003B003B003B003B003FE03B0031A
:10010000B003B003B003B003B003B003B003B00357
:10011000B003B003B003B003B003B0030C04B003EA
:10012000B003B003B003B003B003B003CA0311249B
:100130001FBECFEFD0E1DEBFCDBF11E0A0E0B1E048
:10014000EEE5FBE000E00BBF02C007900D92A83087
:10015000B107D9F711E0A8E0B1E001C01D92A338C2
:10016000B107E1F70E948E010C94AD050C940000DC
:10017000CF93DF931F92CDB7DEB7898300008BE268
:1001800090E0FC018081882F90E080729927009791
:10019000B1F38CE290E02981FC01208300008BE226
:1001A00090E0FC018081882F90E080729927009771
:1001B000B1F30F90DF91CF910895CF93DF9300D0EB
:1001C00000D0CDB7DEB79C838B831A8219820FC013
:1001D00089819A812B813C81820F931FFC01808150
:1001E0000E94B80089819A8101969A8389838981C6
:1001F0009A812B813C81820F931FFC01808188238F
:1002000039F70F900F900F900F90DF91CF910895D5
:10021000CF93DF93CDB7DEB728970FB6F894DEBF44
:100220000FBECDBF98878F8311C08F8198859C01A9
:100230002F5F3F4F38872F839D838C838C819D81D7
:10024000FC0184918E838E810E94B8008F819885F5
:100250009A83898389819A81FC0184918B838B8124
:10026000882319F728960FB6F894DEBF0FBECDBFCE
:10027000DF91CF910895CF93DF93CDB7DEB78AE2B8
:1002800090E02AE230E0F90120812861FC0120831E
:1002900085E990E025E930E0F90120812660FC0144
:1002A000208380E990E0FC01108289E290E027E061
:1002B000FC012083DF91CF910895CF93DF9300D08D
:1002C000CDB7DEB71A82198200008BE290E0FC0104
:1002D00080818823D4F78CE290E0FC0180810F902C
:1002E0000F90DF91CF910895CF93DF93CDB7DEB715
:1002F00087E390E027E330E0F90120812760FC01EB
:1003000020838DE290E020E5FC0120838EE290E0E6
:1003100021E0FC012083DF91CF910895CF93DF93FB
:10032000CDB7DEB762970FB6F894DEBF0FBECDBF74
:100330001A8219820E9474010E94FD020E944D04DB
:100340000E943B0187E390E02FEFFC01208382E2D3
:1003500090E0FC0110820E945D01992787FD909535
:100360009C838B838B819C81009729F481E091E0B1
:100370000E94CF020CC08B819C8142E050E061E37F
:1003800071E00E94680581E391E00E94CF0280E065
:1003900090E0A8E4B3E48D839E83AF83B88720E028
:1003A00030E04AEF54E46D817E818F8198850E9410
:1003B000DD04DC01CB0189879A87AB87BC8720E00D
:1003C00030E040E85FE369857A858B859C850E94F3
:1003D0005C0488232CF481E090E09E878D873FC0E9
:1003E00020E03FEF4FE757E469857A858B859C8550
:1003F0000E94D90418164CF520E030E040E251E4A8
:100400006D817E818F8198850E94DD04DC01CB01A6
:10041000BC01CD010E946004DC01CB019E878D8769
:100420000FC088EC90E0988B8F878F859889019713
:10043000F1F7988B8F878D859E8501979E878D8795
:100440008D859E85009769F714C069857A858B85AF
:100450009C850E946004DC01CB019E878D878D8581
:100460009E859A8B898B89899A890197F1F79A8B56
:10047000898B0E9445026FCFE2E6F0E080818860C0
:1004800080838081877F808308951FB8779BFECF0C
:1004900081E08FB9779BFECF809162008860809366
:1004A000620080916200877F809362008FE39FE10A
:1004B0000197F1F700C0000008951FB8779BFECFA9
:1004C00082E08FB9779BFECF809162008860809335
:1004D000620080916200877F8093620008951FB858
:1004E000779BFECF80EC8FB9779BFECF8091620027
:1004F00088608093620080916200877F80936200B1
:10050000089580E190E041E030E24FB9779BFECF63
:100510003FB9779BFECF2091620028602093620054
:1005200020916200277F20936200EFE9FFE031977E
:10053000F1F700C000000197009739F7089591E0A6
:100540009FB9779BFECF8FB9779BFECF80916200DA
:1005500088608093620080916200877F8093620050
:100560008FE99FE00197F1F700C0000008951FB8E0
:10057000779BFECF8CE08FB9779BFECF8091620096
:1005800088608093620080916200877F8093620020
:100590008FE99FE00197F1F700C000000895DC01AA
:1005A00080E090E020E030E041E04FB9779BFECF63
:1005B000FD01E80FF91F80818FB9779BFECF8091F5
:1005C000620088608093620080916200877F8093E0
:1005D00062008FE891E00197F1F700C000002F5F03
:1005E0003F4FC901FD0101900020E9F7EA1BFB0B19
:1005F0003297E217F307C8F608958091610088608A
:10060000809361008FE59AEE0197F1F700C000003A
:1006100083E090E030E31FB8779BFECF3FB9779B34
:10062000FECF20916200286020936200209162003A
:10063000277F20936200EFE5FDE63197F1F700C0D8
:1006400000000197009739F71FB8779BFECF88E32A
:100650008FB9779BFECF80916200886080936200A3
:1006600080916200877F809362008FE19EE4019712
:10067000F1F700C000001FB8779BFECF88E08FB96C
:10068000779BFECF809162008860809362008091AA
:100690006200877F80936200EFE1FEE43197F1F71B
:1006A00000C000001FB8779BFECF81E08FB9779B19
:1006B000FECF80916200886080936200809162002A
:1006C000877F809362008FE19EE40197F1F700C07D
:1006D00000001FB8779BFECF86E08FB9779BFECFD7
:1006E0008091620088608093620080916200877FC1
:1006F00080936200EFE1FEE43197F1F700C0000063
:100700001FB8779BFECF8EE08FB9779BFECF80918D
:10071000620088608093620080916200877F80938E
:1007200062008FE19EE40197F1F700C00000089598
:1007300008951F920F920FB60F9211240BB60F92CD
:100740002F933F938F939F93AF93BF93EF93FF9319
:100750008091710090E0FC013897E135F105B0F02F
:100760008091710080937E0184E080937400FF91FA
:10077000EF91BF91AF919F918F913F912F910F90EA
:100780000BBE0F900FBE0F901F901895EA5BFF4FA6
:100790000C94560480910801E0917F01F091800152
:1007A000E80FF11D80917300808384E980937400C9
:1007B000DECF80918101809373001092080185E85B
:1007C00080937400D4CF80910801909182018917A1
:1007D00060F7E0917F01F091800191E0980F909394
:1007E0000801E80FF11D80818093730085E88093F4
:1007F0007400BDCF85EA80937400B9CF20910801C1
:100800008091820130E090E0019728173907DCF4ED
:1008100085EC80937400ABCFE0917F01F091800173
:100820008091080121E0280F20930801E80FF11DB5
:100830008091730080838091820130E090E0019785
:10084000281739072CF385E88093740090CF8091A6
:100850007400817008959091740090FDFCCF8E7F9C
:10086000809381017093800160937F0140938201A6
:1008700085EA8093740008959091740090FDFCCFF8
:100880008160809381017093800160937F01409328
:10089000820185EA8093740008958FEF809373003E
:1008A000109271008CE0809370000895EE0FFF1F8E
:1008B0000590F491E02D09942FD008F481E008957B
:1008C00057D088F09F5790F0B92F9927B751A0F0D3
:1008D000D1F0660F771F881F991F1AF0BA95C9F7D4
:1008E00012C0B13081F05ED0B1E008955BC0672FD7
:1008F000782F8827B85F39F0B93FCCF38695779584
:100900006795B395D9F73EF490958095709561956C
:100910007F4F8F4F9F4F0895990F0008550FAA0BD7
:10092000E0E8FEEF16161706E807F907C0F0121602
:100930001306E407F50798F0621B730B840B950B05
:1009400039F40A2661F0232B242B252B21F408955A
:100950000A2609F4A140A6958FEF811D811D0895F7
:1009600057FD9058440F551F59F05F3F71F0479560
:10097000880F97FB991F61F09F3F79F08795089545
:10098000121613061406551FF2CF4695F1DF08C064
:10099000161617061806991FF1CF86957105610581
:1009A00008940895E894BB2766277727CB0197F929
:1009B0000895B2DF08F48FEF08950BD078C069D0A6
:1009C00028F06ED018F0952309F05AC05FC01124AA
:1009D000EACFC6DFA0F3959FD1F3950F50E0551FE6
:1009E000629FF001729FBB27F00DB11D639FAA2784
:1009F000F00DB11DAA1F649F6627B00DA11D661FD3
:100A0000829F2227B00DA11D621F739FB00DA11DF3
:100A1000621F839FA00D611D221F749F3327A00DAD
:100A2000611D231F849F600D211D822F762F6A2F49
:100A300011249F5750408AF0E1F088234AF0EE0FCE
:100A4000FF1FBB1F661F771F881F91505040A9F7DB
:100A50009E3F510570F014C0A6CF5F3FECF3983E67
:100A6000DCF3869577956795B795F795E7959F5F42
:100A7000C1F7FE2B880F911D9695879597F90895DC
:100A800097F99F6780E870E060E008959FEF80EC41
:100A9000089500240A9416161706180609060895E4
:100AA00000240A9412161306140605060895092E4A
:100AB0000394000C11F4882352F0BB0F40F4BF2BB9
:100AC00011F460FF04C06F5F7F4F8F4F9F4F0895F9
:100AD000FB019F01E8944230C4F04532B4F44A303F
:100AE00029F497FB1EF4909581959F4F642F7727EB
:100AF0000E949905805D8A330CF0895D8193CB015A
:100B00000097A1F716F45DE251931082C9010C948D
:100B10008905DC01FC01672F71917723E1F732979A
:100B200004C07C916D9370836291AE17BF07C8F3C8
:100B30000895AA1BBB1B51E107C0AA1FBB1FA61724
:100B4000B70710F0A61BB70B881F991F5A95A9F776
:0E0B500080959095BC01CD010895F894FFCFDB
:080B5E00084552524F520000FD
:00000001FF
